{
  "contractName": "TimeLock",
  "abi": [
    {
      "inputs": [
        {
          "name": "token_",
          "type": "address"
        }
      ],
      "payable": false,
      "stateMutability": "nonpayable",
      "type": "constructor"
    },
    {
      "anonymous": false,
      "inputs": [
        {
          "indexed": false,
          "name": "user",
          "type": "address"
        },
        {
          "indexed": false,
          "name": "depositToken",
          "type": "uint256"
        },
        {
          "indexed": false,
          "name": "startingFrom",
          "type": "uint256"
        },
        {
          "indexed": false,
          "name": "period",
          "type": "uint256"
        },
        {
          "indexed": false,
          "name": "releaseTokenPerPeriod",
          "type": "uint256"
        }
      ],
      "name": "AddTimeLock",
      "type": "event"
    },
    {
      "constant": false,
      "inputs": [
        {
          "name": "user_",
          "type": "address"
        },
        {
          "name": "depositToken_",
          "type": "uint256"
        },
        {
          "name": "startingFrom_",
          "type": "uint256"
        },
        {
          "name": "period_",
          "type": "uint256"
        },
        {
          "name": "releaseTokenPerPeriod_",
          "type": "uint256"
        }
      ],
      "name": "deposit",
      "outputs": [
        {
          "name": "",
          "type": "bool"
        }
      ],
      "payable": false,
      "stateMutability": "nonpayable",
      "type": "function"
    }
  ],
  "bytecode": "0x6060604052341561000f57600080fd5b60405160208061058683398101604052808051906020019091905050806000806101000a81548173ffffffffffffffffffffffffffffffffffffffff021916908373ffffffffffffffffffffffffffffffffffffffff16021790555033600160006101000a81548173ffffffffffffffffffffffffffffffffffffffff021916908373ffffffffffffffffffffffffffffffffffffffff160217905550506104ca806100bc6000396000f300606060405260043610610041576000357c0100000000000000000000000000000000000000000000000000000000900463ffffffff1680636893680914610046575b600080fd5b341561005157600080fd5b6100a1600480803573ffffffffffffffffffffffffffffffffffffffff169060200190919080359060200190919080359060200190919080359060200190919080359060200190919050506100bb565b604051808215151515815260200191505060405180910390f35b6000806000600160009054906101000a900473ffffffffffffffffffffffffffffffffffffffff1673ffffffffffffffffffffffffffffffffffffffff163373ffffffffffffffffffffffffffffffffffffffff1614151561011c57600080fd5b60008711151561012b57600080fd5b60008411151561013a57600080fd5b838711151561014857600080fd5b8691508590505b83821115610245576000809054906101000a900473ffffffffffffffffffffffffffffffffffffffff1673ffffffffffffffffffffffffffffffffffffffff1663d73a61128983876040518463ffffffff167c0100000000000000000000000000000000000000000000000000000000028152600401808473ffffffffffffffffffffffffffffffffffffffff1673ffffffffffffffffffffffffffffffffffffffff1681526020018381526020018281526020019350505050600060405180830381600087803b151561022257600080fd5b6102c65a03f1151561023357600080fd5b5050508382039150848101905061014f565b6000809054906101000a900473ffffffffffffffffffffffffffffffffffffffff1673ffffffffffffffffffffffffffffffffffffffff1663d73a61128983856040518463ffffffff167c0100000000000000000000000000000000000000000000000000000000028152600401808473ffffffffffffffffffffffffffffffffffffffff1673ffffffffffffffffffffffffffffffffffffffff1681526020018381526020018281526020019350505050600060405180830381600087803b151561031057600080fd5b6102c65a03f1151561032157600080fd5b5050507fb663c327c0b502e6c29c1f950a693bb814272a1f15bd563f359f53a6d85a28dd8888888888604051808673ffffffffffffffffffffffffffffffffffffffff1673ffffffffffffffffffffffffffffffffffffffff1681526020018581526020018481526020018381526020018281526020019550505050505060405180910390a16000809054906101000a900473ffffffffffffffffffffffffffffffffffffffff1673ffffffffffffffffffffffffffffffffffffffff1663a9059cbb89896000604051602001526040518363ffffffff167c0100000000000000000000000000000000000000000000000000000000028152600401808373ffffffffffffffffffffffffffffffffffffffff1673ffffffffffffffffffffffffffffffffffffffff16815260200182815260200192505050602060405180830381600087803b151561047357600080fd5b6102c65a03f1151561048457600080fd5b5050506040518051905050600192505050959450505050505600a165627a7a723058203b838dd302c65013d29e8deed10a72dd8d2a1af2a05a5d0b81a85990b5e3b8660029",
  "source": "pragma solidity ^0.4.11;\n\nimport \"./OneledgerToken.sol\";\n\n/**\n * @title TimeLock\n * @dev This is the contract to deposit token with condition of timelocking to the user\n */\ncontract TimeLock {\n  OneledgerToken token;\n  address owner;\n\n  event AddTimeLock(address user,\n    uint256 depositToken,\n    uint256 startingFrom,\n    uint256 period,\n    uint256 releaseTokenPerPeriod);\n\n\n  /**\n    * @dev constructor\n    * @param token_ OneldgerToken\n  */\n  function TimeLock(OneledgerToken token_) public {\n      token = token_;\n      owner = msg.sender;\n  }\n\n  /**\n  * @dev depsit token with time lock condition\n  * param user_ address the user to depsit money to\n  * param depositToken_ int the amount of token desposit to\n  */\n  function deposit(address user_,\n    uint256 depositToken_,\n    uint256 startingFrom_,\n    uint256 period_,\n    uint256 releaseTokenPerPeriod_\n    ) public returns (bool){\n    require(msg.sender == owner);\n    require(depositToken_ > 0);\n    require(releaseTokenPerPeriod_ > 0);\n    require(depositToken_ > releaseTokenPerPeriod_);\n\n    uint256 unReleasedToken = depositToken_;\n    uint256 duration = startingFrom_;\n    while(unReleasedToken > releaseTokenPerPeriod_){\n      token.addLocker(user_, duration, releaseTokenPerPeriod_); //after 4 weeks, release 300 token\n      unReleasedToken -= releaseTokenPerPeriod_;\n      duration += period_;\n    }\n    token.addLocker(user_, duration, unReleasedToken);\n    AddTimeLock(user_, depositToken_, startingFrom_, period_, releaseTokenPerPeriod_);\n    token.transfer(user_, depositToken_);\n    return true;\n  }\n}\n",
  "sourcePath": "/Users/yangli/dev/OLT/contracts/TimeLock.sol",
  "compiler": {
    "name": "solc",
    "version": "0.4.19+commit.c4cbbb05.Emscripten.clang"
  },
  "schemaVersion": "2.0.0",
  "updatedAt": "2018-03-18T03:44:31.002Z"
}