{
  "contractName": "TimeLock",
  "abi": [
    {
      "inputs": [
        {
          "name": "token_",
          "type": "address"
        }
      ],
      "payable": false,
      "stateMutability": "nonpayable",
      "type": "constructor"
    },
    {
      "constant": false,
      "inputs": [
        {
          "name": "user_",
          "type": "address"
        },
        {
          "name": "depositToken_",
          "type": "uint256"
        },
        {
          "name": "startingFrom_",
          "type": "uint256"
        },
        {
          "name": "period_",
          "type": "uint256"
        },
        {
          "name": "releaseTokenPerPeriod_",
          "type": "uint256"
        }
      ],
      "name": "deposit",
      "outputs": [
        {
          "name": "",
          "type": "bool"
        }
      ],
      "payable": false,
      "stateMutability": "nonpayable",
      "type": "function"
    }
  ],
  "bytecode": "0x6060604052341561000f57600080fd5b60405160208061050083398101604052808051906020019091905050806000806101000a81548173ffffffffffffffffffffffffffffffffffffffff021916908373ffffffffffffffffffffffffffffffffffffffff16021790555033600160006101000a81548173ffffffffffffffffffffffffffffffffffffffff021916908373ffffffffffffffffffffffffffffffffffffffff16021790555050610444806100bc6000396000f300606060405260043610610041576000357c0100000000000000000000000000000000000000000000000000000000900463ffffffff1680636893680914610046575b600080fd5b341561005157600080fd5b6100a1600480803573ffffffffffffffffffffffffffffffffffffffff169060200190919080359060200190919080359060200190919080359060200190919080359060200190919050506100bb565b604051808215151515815260200191505060405180910390f35b6000806000600160009054906101000a900473ffffffffffffffffffffffffffffffffffffffff1673ffffffffffffffffffffffffffffffffffffffff163373ffffffffffffffffffffffffffffffffffffffff1614151561011c57600080fd5b60008711151561012b57600080fd5b60008411151561013a57600080fd5b838711151561014857600080fd5b8691508590505b83821115610245576000809054906101000a900473ffffffffffffffffffffffffffffffffffffffff1673ffffffffffffffffffffffffffffffffffffffff1663d73a61128983876040518463ffffffff167c0100000000000000000000000000000000000000000000000000000000028152600401808473ffffffffffffffffffffffffffffffffffffffff1673ffffffffffffffffffffffffffffffffffffffff1681526020018381526020018281526020019350505050600060405180830381600087803b151561022257600080fd5b6102c65a03f1151561023357600080fd5b5050508382039150848101905061014f565b6000809054906101000a900473ffffffffffffffffffffffffffffffffffffffff1673ffffffffffffffffffffffffffffffffffffffff1663d73a61128983856040518463ffffffff167c0100000000000000000000000000000000000000000000000000000000028152600401808473ffffffffffffffffffffffffffffffffffffffff1673ffffffffffffffffffffffffffffffffffffffff1681526020018381526020018281526020019350505050600060405180830381600087803b151561031057600080fd5b6102c65a03f1151561032157600080fd5b5050506000809054906101000a900473ffffffffffffffffffffffffffffffffffffffff1673ffffffffffffffffffffffffffffffffffffffff1663a9059cbb89896000604051602001526040518363ffffffff167c0100000000000000000000000000000000000000000000000000000000028152600401808373ffffffffffffffffffffffffffffffffffffffff1673ffffffffffffffffffffffffffffffffffffffff16815260200182815260200192505050602060405180830381600087803b15156103f057600080fd5b6102c65a03f1151561040157600080fd5b5050506040518051905092505050959450505050505600a165627a7a723058203f1fdcfff3eeea17554dc9eae1eddaa5a68b225095b7bb5c62de6518ca28eb630029",
  "source": "pragma solidity ^0.4.11;\n\nimport \"./OneledgerToken.sol\";\n\n/**\n * @title TimeLock\n * @dev This is the contract to deposit token with condition of timelocking to the user\n */\ncontract TimeLock {\n  OneledgerToken token;\n  address owner;\n\n  /**\n    * @dev constructor\n    * @param token_ OneldgerToken\n  */\n  function TimeLock(OneledgerToken token_) public {\n      token = token_;\n      owner = msg.sender;\n  }\n\n  /**\n  * @dev depsit token with time lock condition\n  * param user_ address the user to depsit money to\n  * param depositToken_ int the amount of token desposit to\n  */\n  function deposit(address user_, uint256 depositToken_, uint256 startingFrom_, uint256 period_, uint256 releaseTokenPerPeriod_) public returns (bool){\n    require(msg.sender == owner);\n    require(depositToken_ > 0);\n    require(releaseTokenPerPeriod_ > 0);\n    require(depositToken_ > releaseTokenPerPeriod_);\n\n    uint256 unReleasedToken = depositToken_;\n    uint256 duration = startingFrom_;\n    while(unReleasedToken > releaseTokenPerPeriod_){\n      token.addLocker(user_, duration, releaseTokenPerPeriod_); //after 4 weeks, release 300 token\n      unReleasedToken -= releaseTokenPerPeriod_;\n      duration += period_;\n    }\n    token.addLocker(user_, duration, unReleasedToken);\n    return token.transfer(user_, depositToken_);\n  }\n}\n",
  "sourcePath": "/Users/yangli/dev/OLT/contracts/TimeLock.sol",
  "compiler": {
    "name": "solc",
    "version": "0.4.19+commit.c4cbbb05.Emscripten.clang"
  },
  "schemaVersion": "2.0.0",
  "updatedAt": "2018-03-17T17:12:33.096Z"
}